{
	"data": {
		"bytecode": {
			"linkReferences": {},
			"object": "60806040526001600260146101000a81548160ff0219169083151502179055503480156029575f80fd5b503360025f6101000a81548173ffffffffffffffffffffffffffffffffffffffff021916908373ffffffffffffffffffffffffffffffffffffffff160217905550611967806100775f395ff3fe6080604052600436106100a6575f3560e01c80638e841330116100635780638e841330146101a8578063a8a9b036146101be578063b4b84989146101d4578063d4e36ba7146101fe578063f44eabaf14610226578063f851a44014610250576100a6565b8063323ae37b146100aa57806342313f30146100d4578063502c9bd5146100fc57806362042b8f146101385780636cd947ee1461016257806380e77dc91461019e575b5f80fd5b3480156100b5575f80fd5b506100be61027a565b6040516100cb9190610da0565b60405180910390f35b3480156100df575f80fd5b506100fa60048036038101906100f59190610e06565b6104a8565b005b348015610107575f80fd5b50610122600480360381019061011d9190610e64565b610554565b60405161012f9190610e9e565b60405180910390f35b348015610143575f80fd5b5061014c61058f565b6040516101599190610ec6565b60405180910390f35b34801561016d575f80fd5b5061018860048036038101906101839190610f09565b61059b565b6040516101959190610f7c565b60405180910390f35b6101a6610635565b005b3480156101b3575f80fd5b506101bc610637565b005b3480156101c9575f80fd5b506101d2610873565b005b3480156101df575f80fd5b506101e86109d3565b6040516101f59190610fab565b60405180910390f35b348015610209575f80fd5b50610224600480360381019061021f91906110f0565b6109e6565b005b348015610231575f80fd5b5061023a610b1d565b60405161024791906111df565b60405180910390f35b34801561025b575f80fd5b50610264610ba8565b604051610271919061121f565b60405180910390f35b60605f60018054905067ffffffffffffffff81111561029c5761029b610fcc565b5b6040519080825280602002602001820160405280156102d557816020015b6102c2610bcd565b8152602001906001900390816102ba5790505b5090505f5b6001805490508110156104a057600181815481106102fb576102fa611238565b5b905f5260205f20015f9054906101000a900473ffffffffffffffffffffffffffffffffffffffff1682828151811061033657610335611238565b5b60200260200101515f019073ffffffffffffffffffffffffffffffffffffffff16908173ffffffffffffffffffffffffffffffffffffffff16815250505f806001838154811061038957610388611238565b5b905f5260205f20015f9054906101000a900473ffffffffffffffffffffffffffffffffffffffff1673ffffffffffffffffffffffffffffffffffffffff1673ffffffffffffffffffffffffffffffffffffffff1681526020019081526020015f2080546103f590611292565b80601f016020809104026020016040519081016040528092919081815260200182805461042190611292565b801561046c5780601f106104435761010080835404028352916020019161046c565b820191905f5260205f20905b81548152906001019060200180831161044f57829003601f168201915b505050505082828151811061048457610483611238565b5b60200260200101516020018190525080806001019150506102da565b508091505090565b60025f9054906101000a900473ffffffffffffffffffffffffffffffffffffffff1673ffffffffffffffffffffffffffffffffffffffff163373ffffffffffffffffffffffffffffffffffffffff1614610537576040517f08c379a000000000000000000000000000000000000000000000000000000000815260040161052e90611332565b60405180910390fd5b80600260146101000a81548160ff02191690831515021790555050565b60018181548110610563575f80fd5b905f5260205f20015f915054906101000a900473ffffffffffffffffffffffffffffffffffffffff1681565b5f600180549050905090565b5f602052805f5260405f205f9150905080546105b690611292565b80601f01602080910402602001604051908101604052809291908181526020018280546105e290611292565b801561062d5780601f106106045761010080835404028352916020019161062d565b820191905f5260205f20905b81548152906001019060200180831161061057829003601f168201915b505050505081565b565b60025f9054906101000a900473ffffffffffffffffffffffffffffffffffffffff1673ffffffffffffffffffffffffffffffffffffffff163373ffffffffffffffffffffffffffffffffffffffff16146106c6576040517f08c379a00000000000000000000000000000000000000000000000000000000081526004016106bd90611332565b60405180910390fd5b5f6001805490501161070d576040517f08c379a0000000000000000000000000000000000000000000000000000000008152600401610704906113c0565b60405180910390fd5b674563918244f40000600180549050610726919061140b565b471015610768576040517f08c379a000000000000000000000000000000000000000000000000000000000815260040161075f906114e2565b60405180910390fd5b5f5b600180549050811015610870575f6001828154811061078c5761078b611238565b5b905f5260205f20015f9054906101000a900473ffffffffffffffffffffffffffffffffffffffff1673ffffffffffffffffffffffffffffffffffffffff16674563918244f400006040516107df9061152d565b5f6040518083038185875af1925050503d805f8114610819576040519150601f19603f3d011682016040523d82523d5f602084013e61081e565b606091505b5050905080610862576040517f08c379a0000000000000000000000000000000000000000000000000000000008152600401610859906115b1565b60405180910390fd5b50808060010191505061076a565b50565b60025f9054906101000a900473ffffffffffffffffffffffffffffffffffffffff1673ffffffffffffffffffffffffffffffffffffffff163373ffffffffffffffffffffffffffffffffffffffff1614610902576040517f08c379a00000000000000000000000000000000000000000000000000000000081526004016108f990611332565b60405180910390fd5b5f4790505f60025f9054906101000a900473ffffffffffffffffffffffffffffffffffffffff1673ffffffffffffffffffffffffffffffffffffffff168260405161094c9061152d565b5f6040518083038185875af1925050503d805f8114610986576040519150601f19603f3d011682016040523d82523d5f602084013e61098b565b606091505b50509050806109cf576040517f08c379a00000000000000000000000000000000000000000000000000000000081526004016109c690611619565b60405180910390fd5b5050565b600260149054906101000a900460ff1681565b5f805f3373ffffffffffffffffffffffffffffffffffffffff1673ffffffffffffffffffffffffffffffffffffffff1681526020019081526020015f208054610a2e90611292565b905014610a70576040517f08c379a0000000000000000000000000000000000000000000000000000000008152600401610a67906116a7565b60405180910390fd5b600133908060018154018082558091505060019003905f5260205f20015f9091909190916101000a81548173ffffffffffffffffffffffffffffffffffffffff021916908373ffffffffffffffffffffffffffffffffffffffff160217905550805f803373ffffffffffffffffffffffffffffffffffffffff1673ffffffffffffffffffffffffffffffffffffffff1681526020019081526020015f209081610b199190611862565b5050565b60606001805480602002602001604051908101604052809291908181526020018280548015610b9e57602002820191905f5260205f20905b815f9054906101000a900473ffffffffffffffffffffffffffffffffffffffff1673ffffffffffffffffffffffffffffffffffffffff1681526020019060010190808311610b55575b5050505050905090565b60025f9054906101000a900473ffffffffffffffffffffffffffffffffffffffff1681565b60405180604001604052805f73ffffffffffffffffffffffffffffffffffffffff168152602001606081525090565b5f81519050919050565b5f82825260208201905092915050565b5f819050602082019050919050565b5f73ffffffffffffffffffffffffffffffffffffffff82169050919050565b5f610c4e82610c25565b9050919050565b610c5e81610c44565b82525050565b5f81519050919050565b5f82825260208201905092915050565b8281835e5f83830152505050565b5f601f19601f8301169050919050565b5f610ca682610c64565b610cb08185610c6e565b9350610cc0818560208601610c7e565b610cc981610c8c565b840191505092915050565b5f604083015f830151610ce95f860182610c55565b5060208301518482036020860152610d018282610c9c565b9150508091505092915050565b5f610d198383610cd4565b905092915050565b5f602082019050919050565b5f610d3782610bfc565b610d418185610c06565b935083602082028501610d5385610c16565b805f5b85811015610d8e5784840389528151610d6f8582610d0e565b9450610d7a83610d21565b925060208a01995050600181019050610d56565b50829750879550505050505092915050565b5f6020820190508181035f830152610db88184610d2d565b905092915050565b5f604051905090565b5f80fd5b5f80fd5b5f8115159050919050565b610de581610dd1565b8114610def575f80fd5b50565b5f81359050610e0081610ddc565b92915050565b5f60208284031215610e1b57610e1a610dc9565b5b5f610e2884828501610df2565b91505092915050565b5f819050919050565b610e4381610e31565b8114610e4d575f80fd5b50565b5f81359050610e5e81610e3a565b92915050565b5f60208284031215610e7957610e78610dc9565b5b5f610e8684828501610e50565b91505092915050565b610e9881610c44565b82525050565b5f602082019050610eb15f830184610e8f565b92915050565b610ec081610e31565b82525050565b5f602082019050610ed95f830184610eb7565b92915050565b610ee881610c44565b8114610ef2575f80fd5b50565b5f81359050610f0381610edf565b92915050565b5f60208284031215610f1e57610f1d610dc9565b5b5f610f2b84828501610ef5565b91505092915050565b5f82825260208201905092915050565b5f610f4e82610c64565b610f588185610f34565b9350610f68818560208601610c7e565b610f7181610c8c565b840191505092915050565b5f6020820190508181035f830152610f948184610f44565b905092915050565b610fa581610dd1565b82525050565b5f602082019050610fbe5f830184610f9c565b92915050565b5f80fd5b5f80fd5b7f4e487b71000000000000000000000000000000000000000000000000000000005f52604160045260245ffd5b61100282610c8c565b810181811067ffffffffffffffff8211171561102157611020610fcc565b5b80604052505050565b5f611033610dc0565b905061103f8282610ff9565b919050565b5f67ffffffffffffffff82111561105e5761105d610fcc565b5b61106782610c8c565b9050602081019050919050565b828183375f83830152505050565b5f61109461108f84611044565b61102a565b9050828152602081018484840111156110b0576110af610fc8565b5b6110bb848285611074565b509392505050565b5f82601f8301126110d7576110d6610fc4565b5b81356110e7848260208601611082565b91505092915050565b5f6020828403121561110557611104610dc9565b5b5f82013567ffffffffffffffff81111561112257611121610dcd565b5b61112e848285016110c3565b91505092915050565b5f81519050919050565b5f82825260208201905092915050565b5f819050602082019050919050565b5f61116b8383610c55565b60208301905092915050565b5f602082019050919050565b5f61118d82611137565b6111978185611141565b93506111a283611151565b805f5b838110156111d25781516111b98882611160565b97506111c483611177565b9250506001810190506111a5565b5085935050505092915050565b5f6020820190508181035f8301526111f78184611183565b905092915050565b5f61120982610c25565b9050919050565b611219816111ff565b82525050565b5f6020820190506112325f830184611210565b92915050565b7f4e487b71000000000000000000000000000000000000000000000000000000005f52603260045260245ffd5b7f4e487b71000000000000000000000000000000000000000000000000000000005f52602260045260245ffd5b5f60028204905060018216806112a957607f821691505b6020821081036112bc576112bb611265565b5b50919050565b7f4f6e6c7920746865206f776e65722063616e2063616c6c20746869732066756e5f8201527f6374696f6e2e0000000000000000000000000000000000000000000000000000602082015250565b5f61131c602683610f34565b9150611327826112c2565b604082019050919050565b5f6020820190508181035f83015261134981611310565b9050919050565b7f4e6f626f64792068617320706172746963697061746564207965742c204927765f8201527f6520676f74206e6f2d6f6e6520746f2073656e642065746865727320746f2100602082015250565b5f6113aa603f83610f34565b91506113b582611350565b604082019050919050565b5f6020820190508181035f8301526113d78161139e565b9050919050565b7f4e487b71000000000000000000000000000000000000000000000000000000005f52601160045260245ffd5b5f61141582610e31565b915061142083610e31565b925082820261142e81610e31565b91508282048414831517611445576114446113de565b5b5092915050565b7f54686520636f6e747261637420646f65736e2774206861766520656e6f7567685f8201527f20657468657220746f2073656e6420352045746865727320746f20657665727960208201527f207061727469636970616e742100000000000000000000000000000000000000604082015250565b5f6114cc604d83610f34565b91506114d78261144c565b606082019050919050565b5f6020820190508181035f8301526114f9816114c0565b9050919050565b5f81905092915050565b50565b5f6115185f83611500565b91506115238261150a565b5f82019050919050565b5f6115378261150d565b9150819050919050565b7f536f6d657468696e672077656e742077726f6e67207768656e2062617463682d5f8201527f7472616e73666572696e67210000000000000000000000000000000000000000602082015250565b5f61159b602c83610f34565b91506115a682611541565b604082019050919050565b5f6020820190508181035f8301526115c88161158f565b9050919050565b7f4661696c656420746f2073656e64204574686572203a2d2800000000000000005f82015250565b5f611603601883610f34565b915061160e826115cf565b602082019050919050565b5f6020820190508181035f830152611630816115f7565b9050919050565b7f596f7527766520616c72656164792073746f7265642061206d657373616765205f8201527f696e2074686520706173742c20736f7272792100000000000000000000000000602082015250565b5f611691603383610f34565b915061169c82611637565b604082019050919050565b5f6020820190508181035f8301526116be81611685565b9050919050565b5f819050815f5260205f209050919050565b5f6020601f8301049050919050565b5f82821b905092915050565b5f600883026117217fffffffffffffffffffffffffffffffffffffffffffffffffffffffffffffffff826116e6565b61172b86836116e6565b95508019841693508086168417925050509392505050565b5f819050919050565b5f61176661176161175c84610e31565b611743565b610e31565b9050919050565b5f819050919050565b61177f8361174c565b61179361178b8261176d565b8484546116f2565b825550505050565b5f90565b6117a761179b565b6117b2818484611776565b505050565b5b818110156117d5576117ca5f8261179f565b6001810190506117b8565b5050565b601f82111561181a576117eb816116c5565b6117f4846116d7565b81016020851015611803578190505b61181761180f856116d7565b8301826117b7565b50505b505050565b5f82821c905092915050565b5f61183a5f198460080261181f565b1980831691505092915050565b5f611852838361182b565b9150826002028217905092915050565b61186b82610c64565b67ffffffffffffffff81111561188457611883610fcc565b5b61188e8254611292565b6118998282856117d9565b5f60209050601f8311600181146118ca575f84156118b8578287015190505b6118c28582611847565b865550611929565b601f1984166118d8866116c5565b5f5b828110156118ff578489015182556001820191506020850194506020810190506118da565b8683101561191c5784890151611918601f89168261182b565b8355505b6001600288020188555050505b50505050505056fea2646970667358221220a2cf93c5a3b5b5b24595e83d6d16833ae67628a4c600391b0c60070940a99b7664736f6c634300081a0033",
			"opcodes": "PUSH1 0x80 PUSH1 0x40 MSTORE PUSH1 0x1 PUSH1 0x2 PUSH1 0x14 PUSH2 0x100 EXP DUP2 SLOAD DUP2 PUSH1 0xFF MUL NOT AND SWAP1 DUP4 ISZERO ISZERO MUL OR SWAP1 SSTORE POP CALLVALUE DUP1 ISZERO PUSH1 0x29 JUMPI PUSH0 DUP1 REVERT JUMPDEST POP CALLER PUSH1 0x2 PUSH0 PUSH2 0x100 EXP DUP2 SLOAD DUP2 PUSH20 0xFFFFFFFFFFFFFFFFFFFFFFFFFFFFFFFFFFFFFFFF MUL NOT AND SWAP1 DUP4 PUSH20 0xFFFFFFFFFFFFFFFFFFFFFFFFFFFFFFFFFFFFFFFF AND MUL OR SWAP1 SSTORE POP PUSH2 0x1967 DUP1 PUSH2 0x77 PUSH0 CODECOPY PUSH0 RETURN INVALID PUSH1 0x80 PUSH1 0x40 MSTORE PUSH1 0x4 CALLDATASIZE LT PUSH2 0xA6 JUMPI PUSH0 CALLDATALOAD PUSH1 0xE0 SHR DUP1 PUSH4 0x8E841330 GT PUSH2 0x63 JUMPI DUP1 PUSH4 0x8E841330 EQ PUSH2 0x1A8 JUMPI DUP1 PUSH4 0xA8A9B036 EQ PUSH2 0x1BE JUMPI DUP1 PUSH4 0xB4B84989 EQ PUSH2 0x1D4 JUMPI DUP1 PUSH4 0xD4E36BA7 EQ PUSH2 0x1FE JUMPI DUP1 PUSH4 0xF44EABAF EQ PUSH2 0x226 JUMPI DUP1 PUSH4 0xF851A440 EQ PUSH2 0x250 JUMPI PUSH2 0xA6 JUMP JUMPDEST DUP1 PUSH4 0x323AE37B EQ PUSH2 0xAA JUMPI DUP1 PUSH4 0x42313F30 EQ PUSH2 0xD4 JUMPI DUP1 PUSH4 0x502C9BD5 EQ PUSH2 0xFC JUMPI DUP1 PUSH4 0x62042B8F EQ PUSH2 0x138 JUMPI DUP1 PUSH4 0x6CD947EE EQ PUSH2 0x162 JUMPI DUP1 PUSH4 0x80E77DC9 EQ PUSH2 0x19E JUMPI JUMPDEST PUSH0 DUP1 REVERT JUMPDEST CALLVALUE DUP1 ISZERO PUSH2 0xB5 JUMPI PUSH0 DUP1 REVERT JUMPDEST POP PUSH2 0xBE PUSH2 0x27A JUMP JUMPDEST PUSH1 0x40 MLOAD PUSH2 0xCB SWAP2 SWAP1 PUSH2 0xDA0 JUMP JUMPDEST PUSH1 0x40 MLOAD DUP1 SWAP2 SUB SWAP1 RETURN JUMPDEST CALLVALUE DUP1 ISZERO PUSH2 0xDF JUMPI PUSH0 DUP1 REVERT JUMPDEST POP PUSH2 0xFA PUSH1 0x4 DUP1 CALLDATASIZE SUB DUP2 ADD SWAP1 PUSH2 0xF5 SWAP2 SWAP1 PUSH2 0xE06 JUMP JUMPDEST PUSH2 0x4A8 JUMP JUMPDEST STOP JUMPDEST CALLVALUE DUP1 ISZERO PUSH2 0x107 JUMPI PUSH0 DUP1 REVERT JUMPDEST POP PUSH2 0x122 PUSH1 0x4 DUP1 CALLDATASIZE SUB DUP2 ADD SWAP1 PUSH2 0x11D SWAP2 SWAP1 PUSH2 0xE64 JUMP JUMPDEST PUSH2 0x554 JUMP JUMPDEST PUSH1 0x40 MLOAD PUSH2 0x12F SWAP2 SWAP1 PUSH2 0xE9E JUMP JUMPDEST PUSH1 0x40 MLOAD DUP1 SWAP2 SUB SWAP1 RETURN JUMPDEST CALLVALUE DUP1 ISZERO PUSH2 0x143 JUMPI PUSH0 DUP1 REVERT JUMPDEST POP PUSH2 0x14C PUSH2 0x58F JUMP JUMPDEST PUSH1 0x40 MLOAD PUSH2 0x159 SWAP2 SWAP1 PUSH2 0xEC6 JUMP JUMPDEST PUSH1 0x40 MLOAD DUP1 SWAP2 SUB SWAP1 RETURN JUMPDEST CALLVALUE DUP1 ISZERO PUSH2 0x16D JUMPI PUSH0 DUP1 REVERT JUMPDEST POP PUSH2 0x188 PUSH1 0x4 DUP1 CALLDATASIZE SUB DUP2 ADD SWAP1 PUSH2 0x183 SWAP2 SWAP1 PUSH2 0xF09 JUMP JUMPDEST PUSH2 0x59B JUMP JUMPDEST PUSH1 0x40 MLOAD PUSH2 0x195 SWAP2 SWAP1 PUSH2 0xF7C JUMP JUMPDEST PUSH1 0x40 MLOAD DUP1 SWAP2 SUB SWAP1 RETURN JUMPDEST PUSH2 0x1A6 PUSH2 0x635 JUMP JUMPDEST STOP JUMPDEST CALLVALUE DUP1 ISZERO PUSH2 0x1B3 JUMPI PUSH0 DUP1 REVERT JUMPDEST POP PUSH2 0x1BC PUSH2 0x637 JUMP JUMPDEST STOP JUMPDEST CALLVALUE DUP1 ISZERO PUSH2 0x1C9 JUMPI PUSH0 DUP1 REVERT JUMPDEST POP PUSH2 0x1D2 PUSH2 0x873 JUMP JUMPDEST STOP JUMPDEST CALLVALUE DUP1 ISZERO PUSH2 0x1DF JUMPI PUSH0 DUP1 REVERT JUMPDEST POP PUSH2 0x1E8 PUSH2 0x9D3 JUMP JUMPDEST PUSH1 0x40 MLOAD PUSH2 0x1F5 SWAP2 SWAP1 PUSH2 0xFAB JUMP JUMPDEST PUSH1 0x40 MLOAD DUP1 SWAP2 SUB SWAP1 RETURN JUMPDEST CALLVALUE DUP1 ISZERO PUSH2 0x209 JUMPI PUSH0 DUP1 REVERT JUMPDEST POP PUSH2 0x224 PUSH1 0x4 DUP1 CALLDATASIZE SUB DUP2 ADD SWAP1 PUSH2 0x21F SWAP2 SWAP1 PUSH2 0x10F0 JUMP JUMPDEST PUSH2 0x9E6 JUMP JUMPDEST STOP JUMPDEST CALLVALUE DUP1 ISZERO PUSH2 0x231 JUMPI PUSH0 DUP1 REVERT JUMPDEST POP PUSH2 0x23A PUSH2 0xB1D JUMP JUMPDEST PUSH1 0x40 MLOAD PUSH2 0x247 SWAP2 SWAP1 PUSH2 0x11DF JUMP JUMPDEST PUSH1 0x40 MLOAD DUP1 SWAP2 SUB SWAP1 RETURN JUMPDEST CALLVALUE DUP1 ISZERO PUSH2 0x25B JUMPI PUSH0 DUP1 REVERT JUMPDEST POP PUSH2 0x264 PUSH2 0xBA8 JUMP JUMPDEST PUSH1 0x40 MLOAD PUSH2 0x271 SWAP2 SWAP1 PUSH2 0x121F JUMP JUMPDEST PUSH1 0x40 MLOAD DUP1 SWAP2 SUB SWAP1 RETURN JUMPDEST PUSH1 0x60 PUSH0 PUSH1 0x1 DUP1 SLOAD SWAP1 POP PUSH8 0xFFFFFFFFFFFFFFFF DUP2 GT ISZERO PUSH2 0x29C JUMPI PUSH2 0x29B PUSH2 0xFCC JUMP JUMPDEST JUMPDEST PUSH1 0x40 MLOAD SWAP1 DUP1 DUP3 MSTORE DUP1 PUSH1 0x20 MUL PUSH1 0x20 ADD DUP3 ADD PUSH1 0x40 MSTORE DUP1 ISZERO PUSH2 0x2D5 JUMPI DUP2 PUSH1 0x20 ADD JUMPDEST PUSH2 0x2C2 PUSH2 0xBCD JUMP JUMPDEST DUP2 MSTORE PUSH1 0x20 ADD SWAP1 PUSH1 0x1 SWAP1 SUB SWAP1 DUP2 PUSH2 0x2BA JUMPI SWAP1 POP JUMPDEST POP SWAP1 POP PUSH0 JUMPDEST PUSH1 0x1 DUP1 SLOAD SWAP1 POP DUP2 LT ISZERO PUSH2 0x4A0 JUMPI PUSH1 0x1 DUP2 DUP2 SLOAD DUP2 LT PUSH2 0x2FB JUMPI PUSH2 0x2FA PUSH2 0x1238 JUMP JUMPDEST JUMPDEST SWAP1 PUSH0 MSTORE PUSH1 0x20 PUSH0 KECCAK256 ADD PUSH0 SWAP1 SLOAD SWAP1 PUSH2 0x100 EXP SWAP1 DIV PUSH20 0xFFFFFFFFFFFFFFFFFFFFFFFFFFFFFFFFFFFFFFFF AND DUP3 DUP3 DUP2 MLOAD DUP2 LT PUSH2 0x336 JUMPI PUSH2 0x335 PUSH2 0x1238 JUMP JUMPDEST JUMPDEST PUSH1 0x20 MUL PUSH1 0x20 ADD ADD MLOAD PUSH0 ADD SWAP1 PUSH20 0xFFFFFFFFFFFFFFFFFFFFFFFFFFFFFFFFFFFFFFFF AND SWAP1 DUP2 PUSH20 0xFFFFFFFFFFFFFFFFFFFFFFFFFFFFFFFFFFFFFFFF AND DUP2 MSTORE POP POP PUSH0 DUP1 PUSH1 0x1 DUP4 DUP2 SLOAD DUP2 LT PUSH2 0x389 JUMPI PUSH2 0x388 PUSH2 0x1238 JUMP JUMPDEST JUMPDEST SWAP1 PUSH0 MSTORE PUSH1 0x20 PUSH0 KECCAK256 ADD PUSH0 SWAP1 SLOAD SWAP1 PUSH2 0x100 EXP SWAP1 DIV PUSH20 0xFFFFFFFFFFFFFFFFFFFFFFFFFFFFFFFFFFFFFFFF AND PUSH20 0xFFFFFFFFFFFFFFFFFFFFFFFFFFFFFFFFFFFFFFFF AND PUSH20 0xFFFFFFFFFFFFFFFFFFFFFFFFFFFFFFFFFFFFFFFF AND DUP2 MSTORE PUSH1 0x20 ADD SWAP1 DUP2 MSTORE PUSH1 0x20 ADD PUSH0 KECCAK256 DUP1 SLOAD PUSH2 0x3F5 SWAP1 PUSH2 0x1292 JUMP JUMPDEST DUP1 PUSH1 0x1F ADD PUSH1 0x20 DUP1 SWAP2 DIV MUL PUSH1 0x20 ADD PUSH1 0x40 MLOAD SWAP1 DUP2 ADD PUSH1 0x40 MSTORE DUP1 SWAP3 SWAP2 SWAP1 DUP2 DUP2 MSTORE PUSH1 0x20 ADD DUP3 DUP1 SLOAD PUSH2 0x421 SWAP1 PUSH2 0x1292 JUMP JUMPDEST DUP1 ISZERO PUSH2 0x46C JUMPI DUP1 PUSH1 0x1F LT PUSH2 0x443 JUMPI PUSH2 0x100 DUP1 DUP4 SLOAD DIV MUL DUP4 MSTORE SWAP2 PUSH1 0x20 ADD SWAP2 PUSH2 0x46C JUMP JUMPDEST DUP3 ADD SWAP2 SWAP1 PUSH0 MSTORE PUSH1 0x20 PUSH0 KECCAK256 SWAP1 JUMPDEST DUP2 SLOAD DUP2 MSTORE SWAP1 PUSH1 0x1 ADD SWAP1 PUSH1 0x20 ADD DUP1 DUP4 GT PUSH2 0x44F JUMPI DUP3 SWAP1 SUB PUSH1 0x1F AND DUP3 ADD SWAP2 JUMPDEST POP POP POP POP POP DUP3 DUP3 DUP2 MLOAD DUP2 LT PUSH2 0x484 JUMPI PUSH2 0x483 PUSH2 0x1238 JUMP JUMPDEST JUMPDEST PUSH1 0x20 MUL PUSH1 0x20 ADD ADD MLOAD PUSH1 0x20 ADD DUP2 SWAP1 MSTORE POP DUP1 DUP1 PUSH1 0x1 ADD SWAP2 POP POP PUSH2 0x2DA JUMP JUMPDEST POP DUP1 SWAP2 POP POP SWAP1 JUMP JUMPDEST PUSH1 0x2 PUSH0 SWAP1 SLOAD SWAP1 PUSH2 0x100 EXP SWAP1 DIV PUSH20 0xFFFFFFFFFFFFFFFFFFFFFFFFFFFFFFFFFFFFFFFF AND PUSH20 0xFFFFFFFFFFFFFFFFFFFFFFFFFFFFFFFFFFFFFFFF AND CALLER PUSH20 0xFFFFFFFFFFFFFFFFFFFFFFFFFFFFFFFFFFFFFFFF AND EQ PUSH2 0x537 JUMPI PUSH1 0x40 MLOAD PUSH32 0x8C379A000000000000000000000000000000000000000000000000000000000 DUP2 MSTORE PUSH1 0x4 ADD PUSH2 0x52E SWAP1 PUSH2 0x1332 JUMP JUMPDEST PUSH1 0x40 MLOAD DUP1 SWAP2 SUB SWAP1 REVERT JUMPDEST DUP1 PUSH1 0x2 PUSH1 0x14 PUSH2 0x100 EXP DUP2 SLOAD DUP2 PUSH1 0xFF MUL NOT AND SWAP1 DUP4 ISZERO ISZERO MUL OR SWAP1 SSTORE POP POP JUMP JUMPDEST PUSH1 0x1 DUP2 DUP2 SLOAD DUP2 LT PUSH2 0x563 JUMPI PUSH0 DUP1 REVERT JUMPDEST SWAP1 PUSH0 MSTORE PUSH1 0x20 PUSH0 KECCAK256 ADD PUSH0 SWAP2 POP SLOAD SWAP1 PUSH2 0x100 EXP SWAP1 DIV PUSH20 0xFFFFFFFFFFFFFFFFFFFFFFFFFFFFFFFFFFFFFFFF AND DUP2 JUMP JUMPDEST PUSH0 PUSH1 0x1 DUP1 SLOAD SWAP1 POP SWAP1 POP SWAP1 JUMP JUMPDEST PUSH0 PUSH1 0x20 MSTORE DUP1 PUSH0 MSTORE PUSH1 0x40 PUSH0 KECCAK256 PUSH0 SWAP2 POP SWAP1 POP DUP1 SLOAD PUSH2 0x5B6 SWAP1 PUSH2 0x1292 JUMP JUMPDEST DUP1 PUSH1 0x1F ADD PUSH1 0x20 DUP1 SWAP2 DIV MUL PUSH1 0x20 ADD PUSH1 0x40 MLOAD SWAP1 DUP2 ADD PUSH1 0x40 MSTORE DUP1 SWAP3 SWAP2 SWAP1 DUP2 DUP2 MSTORE PUSH1 0x20 ADD DUP3 DUP1 SLOAD PUSH2 0x5E2 SWAP1 PUSH2 0x1292 JUMP JUMPDEST DUP1 ISZERO PUSH2 0x62D JUMPI DUP1 PUSH1 0x1F LT PUSH2 0x604 JUMPI PUSH2 0x100 DUP1 DUP4 SLOAD DIV MUL DUP4 MSTORE SWAP2 PUSH1 0x20 ADD SWAP2 PUSH2 0x62D JUMP JUMPDEST DUP3 ADD SWAP2 SWAP1 PUSH0 MSTORE PUSH1 0x20 PUSH0 KECCAK256 SWAP1 JUMPDEST DUP2 SLOAD DUP2 MSTORE SWAP1 PUSH1 0x1 ADD SWAP1 PUSH1 0x20 ADD DUP1 DUP4 GT PUSH2 0x610 JUMPI DUP3 SWAP1 SUB PUSH1 0x1F AND DUP3 ADD SWAP2 JUMPDEST POP POP POP POP POP DUP2 JUMP JUMPDEST JUMP JUMPDEST PUSH1 0x2 PUSH0 SWAP1 SLOAD SWAP1 PUSH2 0x100 EXP SWAP1 DIV PUSH20 0xFFFFFFFFFFFFFFFFFFFFFFFFFFFFFFFFFFFFFFFF AND PUSH20 0xFFFFFFFFFFFFFFFFFFFFFFFFFFFFFFFFFFFFFFFF AND CALLER PUSH20 0xFFFFFFFFFFFFFFFFFFFFFFFFFFFFFFFFFFFFFFFF AND EQ PUSH2 0x6C6 JUMPI PUSH1 0x40 MLOAD PUSH32 0x8C379A000000000000000000000000000000000000000000000000000000000 DUP2 MSTORE PUSH1 0x4 ADD PUSH2 0x6BD SWAP1 PUSH2 0x1332 JUMP JUMPDEST PUSH1 0x40 MLOAD DUP1 SWAP2 SUB SWAP1 REVERT JUMPDEST PUSH0 PUSH1 0x1 DUP1 SLOAD SWAP1 POP GT PUSH2 0x70D JUMPI PUSH1 0x40 MLOAD PUSH32 0x8C379A000000000000000000000000000000000000000000000000000000000 DUP2 MSTORE PUSH1 0x4 ADD PUSH2 0x704 SWAP1 PUSH2 0x13C0 JUMP JUMPDEST PUSH1 0x40 MLOAD DUP1 SWAP2 SUB SWAP1 REVERT JUMPDEST PUSH8 0x4563918244F40000 PUSH1 0x1 DUP1 SLOAD SWAP1 POP PUSH2 0x726 SWAP2 SWAP1 PUSH2 0x140B JUMP JUMPDEST SELFBALANCE LT ISZERO PUSH2 0x768 JUMPI PUSH1 0x40 MLOAD PUSH32 0x8C379A000000000000000000000000000000000000000000000000000000000 DUP2 MSTORE PUSH1 0x4 ADD PUSH2 0x75F SWAP1 PUSH2 0x14E2 JUMP JUMPDEST PUSH1 0x40 MLOAD DUP1 SWAP2 SUB SWAP1 REVERT JUMPDEST PUSH0 JUMPDEST PUSH1 0x1 DUP1 SLOAD SWAP1 POP DUP2 LT ISZERO PUSH2 0x870 JUMPI PUSH0 PUSH1 0x1 DUP3 DUP2 SLOAD DUP2 LT PUSH2 0x78C JUMPI PUSH2 0x78B PUSH2 0x1238 JUMP JUMPDEST JUMPDEST SWAP1 PUSH0 MSTORE PUSH1 0x20 PUSH0 KECCAK256 ADD PUSH0 SWAP1 SLOAD SWAP1 PUSH2 0x100 EXP SWAP1 DIV PUSH20 0xFFFFFFFFFFFFFFFFFFFFFFFFFFFFFFFFFFFFFFFF AND PUSH20 0xFFFFFFFFFFFFFFFFFFFFFFFFFFFFFFFFFFFFFFFF AND PUSH8 0x4563918244F40000 PUSH1 0x40 MLOAD PUSH2 0x7DF SWAP1 PUSH2 0x152D JUMP JUMPDEST PUSH0 PUSH1 0x40 MLOAD DUP1 DUP4 SUB DUP2 DUP6 DUP8 GAS CALL SWAP3 POP POP POP RETURNDATASIZE DUP1 PUSH0 DUP2 EQ PUSH2 0x819 JUMPI PUSH1 0x40 MLOAD SWAP2 POP PUSH1 0x1F NOT PUSH1 0x3F RETURNDATASIZE ADD AND DUP3 ADD PUSH1 0x40 MSTORE RETURNDATASIZE DUP3 MSTORE RETURNDATASIZE PUSH0 PUSH1 0x20 DUP5 ADD RETURNDATACOPY PUSH2 0x81E JUMP JUMPDEST PUSH1 0x60 SWAP2 POP JUMPDEST POP POP SWAP1 POP DUP1 PUSH2 0x862 JUMPI PUSH1 0x40 MLOAD PUSH32 0x8C379A000000000000000000000000000000000000000000000000000000000 DUP2 MSTORE PUSH1 0x4 ADD PUSH2 0x859 SWAP1 PUSH2 0x15B1 JUMP JUMPDEST PUSH1 0x40 MLOAD DUP1 SWAP2 SUB SWAP1 REVERT JUMPDEST POP DUP1 DUP1 PUSH1 0x1 ADD SWAP2 POP POP PUSH2 0x76A JUMP JUMPDEST POP JUMP JUMPDEST PUSH1 0x2 PUSH0 SWAP1 SLOAD SWAP1 PUSH2 0x100 EXP SWAP1 DIV PUSH20 0xFFFFFFFFFFFFFFFFFFFFFFFFFFFFFFFFFFFFFFFF AND PUSH20 0xFFFFFFFFFFFFFFFFFFFFFFFFFFFFFFFFFFFFFFFF AND CALLER PUSH20 0xFFFFFFFFFFFFFFFFFFFFFFFFFFFFFFFFFFFFFFFF AND EQ PUSH2 0x902 JUMPI PUSH1 0x40 MLOAD PUSH32 0x8C379A000000000000000000000000000000000000000000000000000000000 DUP2 MSTORE PUSH1 0x4 ADD PUSH2 0x8F9 SWAP1 PUSH2 0x1332 JUMP JUMPDEST PUSH1 0x40 MLOAD DUP1 SWAP2 SUB SWAP1 REVERT JUMPDEST PUSH0 SELFBALANCE SWAP1 POP PUSH0 PUSH1 0x2 PUSH0 SWAP1 SLOAD SWAP1 PUSH2 0x100 EXP SWAP1 DIV PUSH20 0xFFFFFFFFFFFFFFFFFFFFFFFFFFFFFFFFFFFFFFFF AND PUSH20 0xFFFFFFFFFFFFFFFFFFFFFFFFFFFFFFFFFFFFFFFF AND DUP3 PUSH1 0x40 MLOAD PUSH2 0x94C SWAP1 PUSH2 0x152D JUMP JUMPDEST PUSH0 PUSH1 0x40 MLOAD DUP1 DUP4 SUB DUP2 DUP6 DUP8 GAS CALL SWAP3 POP POP POP RETURNDATASIZE DUP1 PUSH0 DUP2 EQ PUSH2 0x986 JUMPI PUSH1 0x40 MLOAD SWAP2 POP PUSH1 0x1F NOT PUSH1 0x3F RETURNDATASIZE ADD AND DUP3 ADD PUSH1 0x40 MSTORE RETURNDATASIZE DUP3 MSTORE RETURNDATASIZE PUSH0 PUSH1 0x20 DUP5 ADD RETURNDATACOPY PUSH2 0x98B JUMP JUMPDEST PUSH1 0x60 SWAP2 POP JUMPDEST POP POP SWAP1 POP DUP1 PUSH2 0x9CF JUMPI PUSH1 0x40 MLOAD PUSH32 0x8C379A000000000000000000000000000000000000000000000000000000000 DUP2 MSTORE PUSH1 0x4 ADD PUSH2 0x9C6 SWAP1 PUSH2 0x1619 JUMP JUMPDEST PUSH1 0x40 MLOAD DUP1 SWAP2 SUB SWAP1 REVERT JUMPDEST POP POP JUMP JUMPDEST PUSH1 0x2 PUSH1 0x14 SWAP1 SLOAD SWAP1 PUSH2 0x100 EXP SWAP1 DIV PUSH1 0xFF AND DUP2 JUMP JUMPDEST PUSH0 DUP1 PUSH0 CALLER PUSH20 0xFFFFFFFFFFFFFFFFFFFFFFFFFFFFFFFFFFFFFFFF AND PUSH20 0xFFFFFFFFFFFFFFFFFFFFFFFFFFFFFFFFFFFFFFFF AND DUP2 MSTORE PUSH1 0x20 ADD SWAP1 DUP2 MSTORE PUSH1 0x20 ADD PUSH0 KECCAK256 DUP1 SLOAD PUSH2 0xA2E SWAP1 PUSH2 0x1292 JUMP JUMPDEST SWAP1 POP EQ PUSH2 0xA70 JUMPI PUSH1 0x40 MLOAD PUSH32 0x8C379A000000000000000000000000000000000000000000000000000000000 DUP2 MSTORE PUSH1 0x4 ADD PUSH2 0xA67 SWAP1 PUSH2 0x16A7 JUMP JUMPDEST PUSH1 0x40 MLOAD DUP1 SWAP2 SUB SWAP1 REVERT JUMPDEST PUSH1 0x1 CALLER SWAP1 DUP1 PUSH1 0x1 DUP2 SLOAD ADD DUP1 DUP3 SSTORE DUP1 SWAP2 POP POP PUSH1 0x1 SWAP1 SUB SWAP1 PUSH0 MSTORE PUSH1 0x20 PUSH0 KECCAK256 ADD PUSH0 SWAP1 SWAP2 SWAP1 SWAP2 SWAP1 SWAP2 PUSH2 0x100 EXP DUP2 SLOAD DUP2 PUSH20 0xFFFFFFFFFFFFFFFFFFFFFFFFFFFFFFFFFFFFFFFF MUL NOT AND SWAP1 DUP4 PUSH20 0xFFFFFFFFFFFFFFFFFFFFFFFFFFFFFFFFFFFFFFFF AND MUL OR SWAP1 SSTORE POP DUP1 PUSH0 DUP1 CALLER PUSH20 0xFFFFFFFFFFFFFFFFFFFFFFFFFFFFFFFFFFFFFFFF AND PUSH20 0xFFFFFFFFFFFFFFFFFFFFFFFFFFFFFFFFFFFFFFFF AND DUP2 MSTORE PUSH1 0x20 ADD SWAP1 DUP2 MSTORE PUSH1 0x20 ADD PUSH0 KECCAK256 SWAP1 DUP2 PUSH2 0xB19 SWAP2 SWAP1 PUSH2 0x1862 JUMP JUMPDEST POP POP JUMP JUMPDEST PUSH1 0x60 PUSH1 0x1 DUP1 SLOAD DUP1 PUSH1 0x20 MUL PUSH1 0x20 ADD PUSH1 0x40 MLOAD SWAP1 DUP2 ADD PUSH1 0x40 MSTORE DUP1 SWAP3 SWAP2 SWAP1 DUP2 DUP2 MSTORE PUSH1 0x20 ADD DUP3 DUP1 SLOAD DUP1 ISZERO PUSH2 0xB9E JUMPI PUSH1 0x20 MUL DUP3 ADD SWAP2 SWAP1 PUSH0 MSTORE PUSH1 0x20 PUSH0 KECCAK256 SWAP1 JUMPDEST DUP2 PUSH0 SWAP1 SLOAD SWAP1 PUSH2 0x100 EXP SWAP1 DIV PUSH20 0xFFFFFFFFFFFFFFFFFFFFFFFFFFFFFFFFFFFFFFFF AND PUSH20 0xFFFFFFFFFFFFFFFFFFFFFFFFFFFFFFFFFFFFFFFF AND DUP2 MSTORE PUSH1 0x20 ADD SWAP1 PUSH1 0x1 ADD SWAP1 DUP1 DUP4 GT PUSH2 0xB55 JUMPI JUMPDEST POP POP POP POP POP SWAP1 POP SWAP1 JUMP JUMPDEST PUSH1 0x2 PUSH0 SWAP1 SLOAD SWAP1 PUSH2 0x100 EXP SWAP1 DIV PUSH20 0xFFFFFFFFFFFFFFFFFFFFFFFFFFFFFFFFFFFFFFFF AND DUP2 JUMP JUMPDEST PUSH1 0x40 MLOAD DUP1 PUSH1 0x40 ADD PUSH1 0x40 MSTORE DUP1 PUSH0 PUSH20 0xFFFFFFFFFFFFFFFFFFFFFFFFFFFFFFFFFFFFFFFF AND DUP2 MSTORE PUSH1 0x20 ADD PUSH1 0x60 DUP2 MSTORE POP SWAP1 JUMP JUMPDEST PUSH0 DUP2 MLOAD SWAP1 POP SWAP2 SWAP1 POP JUMP JUMPDEST PUSH0 DUP3 DUP3 MSTORE PUSH1 0x20 DUP3 ADD SWAP1 POP SWAP3 SWAP2 POP POP JUMP JUMPDEST PUSH0 DUP2 SWAP1 POP PUSH1 0x20 DUP3 ADD SWAP1 POP SWAP2 SWAP1 POP JUMP JUMPDEST PUSH0 PUSH20 0xFFFFFFFFFFFFFFFFFFFFFFFFFFFFFFFFFFFFFFFF DUP3 AND SWAP1 POP SWAP2 SWAP1 POP JUMP JUMPDEST PUSH0 PUSH2 0xC4E DUP3 PUSH2 0xC25 JUMP JUMPDEST SWAP1 POP SWAP2 SWAP1 POP JUMP JUMPDEST PUSH2 0xC5E DUP2 PUSH2 0xC44 JUMP JUMPDEST DUP3 MSTORE POP POP JUMP JUMPDEST PUSH0 DUP2 MLOAD SWAP1 POP SWAP2 SWAP1 POP JUMP JUMPDEST PUSH0 DUP3 DUP3 MSTORE PUSH1 0x20 DUP3 ADD SWAP1 POP SWAP3 SWAP2 POP POP JUMP JUMPDEST DUP3 DUP2 DUP4 MCOPY PUSH0 DUP4 DUP4 ADD MSTORE POP POP POP JUMP JUMPDEST PUSH0 PUSH1 0x1F NOT PUSH1 0x1F DUP4 ADD AND SWAP1 POP SWAP2 SWAP1 POP JUMP JUMPDEST PUSH0 PUSH2 0xCA6 DUP3 PUSH2 0xC64 JUMP JUMPDEST PUSH2 0xCB0 DUP2 DUP6 PUSH2 0xC6E JUMP JUMPDEST SWAP4 POP PUSH2 0xCC0 DUP2 DUP6 PUSH1 0x20 DUP7 ADD PUSH2 0xC7E JUMP JUMPDEST PUSH2 0xCC9 DUP2 PUSH2 0xC8C JUMP JUMPDEST DUP5 ADD SWAP2 POP POP SWAP3 SWAP2 POP POP JUMP JUMPDEST PUSH0 PUSH1 0x40 DUP4 ADD PUSH0 DUP4 ADD MLOAD PUSH2 0xCE9 PUSH0 DUP7 ADD DUP3 PUSH2 0xC55 JUMP JUMPDEST POP PUSH1 0x20 DUP4 ADD MLOAD DUP5 DUP3 SUB PUSH1 0x20 DUP7 ADD MSTORE PUSH2 0xD01 DUP3 DUP3 PUSH2 0xC9C JUMP JUMPDEST SWAP2 POP POP DUP1 SWAP2 POP POP SWAP3 SWAP2 POP POP JUMP JUMPDEST PUSH0 PUSH2 0xD19 DUP4 DUP4 PUSH2 0xCD4 JUMP JUMPDEST SWAP1 POP SWAP3 SWAP2 POP POP JUMP JUMPDEST PUSH0 PUSH1 0x20 DUP3 ADD SWAP1 POP SWAP2 SWAP1 POP JUMP JUMPDEST PUSH0 PUSH2 0xD37 DUP3 PUSH2 0xBFC JUMP JUMPDEST PUSH2 0xD41 DUP2 DUP6 PUSH2 0xC06 JUMP JUMPDEST SWAP4 POP DUP4 PUSH1 0x20 DUP3 MUL DUP6 ADD PUSH2 0xD53 DUP6 PUSH2 0xC16 JUMP JUMPDEST DUP1 PUSH0 JUMPDEST DUP6 DUP2 LT ISZERO PUSH2 0xD8E JUMPI DUP5 DUP5 SUB DUP10 MSTORE DUP2 MLOAD PUSH2 0xD6F DUP6 DUP3 PUSH2 0xD0E JUMP JUMPDEST SWAP5 POP PUSH2 0xD7A DUP4 PUSH2 0xD21 JUMP JUMPDEST SWAP3 POP PUSH1 0x20 DUP11 ADD SWAP10 POP POP PUSH1 0x1 DUP2 ADD SWAP1 POP PUSH2 0xD56 JUMP JUMPDEST POP DUP3 SWAP8 POP DUP8 SWAP6 POP POP POP POP POP POP SWAP3 SWAP2 POP POP JUMP JUMPDEST PUSH0 PUSH1 0x20 DUP3 ADD SWAP1 POP DUP2 DUP2 SUB PUSH0 DUP4 ADD MSTORE PUSH2 0xDB8 DUP2 DUP5 PUSH2 0xD2D JUMP JUMPDEST SWAP1 POP SWAP3 SWAP2 POP POP JUMP JUMPDEST PUSH0 PUSH1 0x40 MLOAD SWAP1 POP SWAP1 JUMP JUMPDEST PUSH0 DUP1 REVERT JUMPDEST PUSH0 DUP1 REVERT JUMPDEST PUSH0 DUP2 ISZERO ISZERO SWAP1 POP SWAP2 SWAP1 POP JUMP JUMPDEST PUSH2 0xDE5 DUP2 PUSH2 0xDD1 JUMP JUMPDEST DUP2 EQ PUSH2 0xDEF JUMPI PUSH0 DUP1 REVERT JUMPDEST POP JUMP JUMPDEST PUSH0 DUP2 CALLDATALOAD SWAP1 POP PUSH2 0xE00 DUP2 PUSH2 0xDDC JUMP JUMPDEST SWAP3 SWAP2 POP POP JUMP JUMPDEST PUSH0 PUSH1 0x20 DUP3 DUP5 SUB SLT ISZERO PUSH2 0xE1B JUMPI PUSH2 0xE1A PUSH2 0xDC9 JUMP JUMPDEST JUMPDEST PUSH0 PUSH2 0xE28 DUP5 DUP3 DUP6 ADD PUSH2 0xDF2 JUMP JUMPDEST SWAP2 POP POP SWAP3 SWAP2 POP POP JUMP JUMPDEST PUSH0 DUP2 SWAP1 POP SWAP2 SWAP1 POP JUMP JUMPDEST PUSH2 0xE43 DUP2 PUSH2 0xE31 JUMP JUMPDEST DUP2 EQ PUSH2 0xE4D JUMPI PUSH0 DUP1 REVERT JUMPDEST POP JUMP JUMPDEST PUSH0 DUP2 CALLDATALOAD SWAP1 POP PUSH2 0xE5E DUP2 PUSH2 0xE3A JUMP JUMPDEST SWAP3 SWAP2 POP POP JUMP JUMPDEST PUSH0 PUSH1 0x20 DUP3 DUP5 SUB SLT ISZERO PUSH2 0xE79 JUMPI PUSH2 0xE78 PUSH2 0xDC9 JUMP JUMPDEST JUMPDEST PUSH0 PUSH2 0xE86 DUP5 DUP3 DUP6 ADD PUSH2 0xE50 JUMP JUMPDEST SWAP2 POP POP SWAP3 SWAP2 POP POP JUMP JUMPDEST PUSH2 0xE98 DUP2 PUSH2 0xC44 JUMP JUMPDEST DUP3 MSTORE POP POP JUMP JUMPDEST PUSH0 PUSH1 0x20 DUP3 ADD SWAP1 POP PUSH2 0xEB1 PUSH0 DUP4 ADD DUP5 PUSH2 0xE8F JUMP JUMPDEST SWAP3 SWAP2 POP POP JUMP JUMPDEST PUSH2 0xEC0 DUP2 PUSH2 0xE31 JUMP JUMPDEST DUP3 MSTORE POP POP JUMP JUMPDEST PUSH0 PUSH1 0x20 DUP3 ADD SWAP1 POP PUSH2 0xED9 PUSH0 DUP4 ADD DUP5 PUSH2 0xEB7 JUMP JUMPDEST SWAP3 SWAP2 POP POP JUMP JUMPDEST PUSH2 0xEE8 DUP2 PUSH2 0xC44 JUMP JUMPDEST DUP2 EQ PUSH2 0xEF2 JUMPI PUSH0 DUP1 REVERT JUMPDEST POP JUMP JUMPDEST PUSH0 DUP2 CALLDATALOAD SWAP1 POP PUSH2 0xF03 DUP2 PUSH2 0xEDF JUMP JUMPDEST SWAP3 SWAP2 POP POP JUMP JUMPDEST PUSH0 PUSH1 0x20 DUP3 DUP5 SUB SLT ISZERO PUSH2 0xF1E JUMPI PUSH2 0xF1D PUSH2 0xDC9 JUMP JUMPDEST JUMPDEST PUSH0 PUSH2 0xF2B DUP5 DUP3 DUP6 ADD PUSH2 0xEF5 JUMP JUMPDEST SWAP2 POP POP SWAP3 SWAP2 POP POP JUMP JUMPDEST PUSH0 DUP3 DUP3 MSTORE PUSH1 0x20 DUP3 ADD SWAP1 POP SWAP3 SWAP2 POP POP JUMP JUMPDEST PUSH0 PUSH2 0xF4E DUP3 PUSH2 0xC64 JUMP JUMPDEST PUSH2 0xF58 DUP2 DUP6 PUSH2 0xF34 JUMP JUMPDEST SWAP4 POP PUSH2 0xF68 DUP2 DUP6 PUSH1 0x20 DUP7 ADD PUSH2 0xC7E JUMP JUMPDEST PUSH2 0xF71 DUP2 PUSH2 0xC8C JUMP JUMPDEST DUP5 ADD SWAP2 POP POP SWAP3 SWAP2 POP POP JUMP JUMPDEST PUSH0 PUSH1 0x20 DUP3 ADD SWAP1 POP DUP2 DUP2 SUB PUSH0 DUP4 ADD MSTORE PUSH2 0xF94 DUP2 DUP5 PUSH2 0xF44 JUMP JUMPDEST SWAP1 POP SWAP3 SWAP2 POP POP JUMP JUMPDEST PUSH2 0xFA5 DUP2 PUSH2 0xDD1 JUMP JUMPDEST DUP3 MSTORE POP POP JUMP JUMPDEST PUSH0 PUSH1 0x20 DUP3 ADD SWAP1 POP PUSH2 0xFBE PUSH0 DUP4 ADD DUP5 PUSH2 0xF9C JUMP JUMPDEST SWAP3 SWAP2 POP POP JUMP JUMPDEST PUSH0 DUP1 REVERT JUMPDEST PUSH0 DUP1 REVERT JUMPDEST PUSH32 0x4E487B7100000000000000000000000000000000000000000000000000000000 PUSH0 MSTORE PUSH1 0x41 PUSH1 0x4 MSTORE PUSH1 0x24 PUSH0 REVERT JUMPDEST PUSH2 0x1002 DUP3 PUSH2 0xC8C JUMP JUMPDEST DUP2 ADD DUP2 DUP2 LT PUSH8 0xFFFFFFFFFFFFFFFF DUP3 GT OR ISZERO PUSH2 0x1021 JUMPI PUSH2 0x1020 PUSH2 0xFCC JUMP JUMPDEST JUMPDEST DUP1 PUSH1 0x40 MSTORE POP POP POP JUMP JUMPDEST PUSH0 PUSH2 0x1033 PUSH2 0xDC0 JUMP JUMPDEST SWAP1 POP PUSH2 0x103F DUP3 DUP3 PUSH2 0xFF9 JUMP JUMPDEST SWAP2 SWAP1 POP JUMP JUMPDEST PUSH0 PUSH8 0xFFFFFFFFFFFFFFFF DUP3 GT ISZERO PUSH2 0x105E JUMPI PUSH2 0x105D PUSH2 0xFCC JUMP JUMPDEST JUMPDEST PUSH2 0x1067 DUP3 PUSH2 0xC8C JUMP JUMPDEST SWAP1 POP PUSH1 0x20 DUP2 ADD SWAP1 POP SWAP2 SWAP1 POP JUMP JUMPDEST DUP3 DUP2 DUP4 CALLDATACOPY PUSH0 DUP4 DUP4 ADD MSTORE POP POP POP JUMP JUMPDEST PUSH0 PUSH2 0x1094 PUSH2 0x108F DUP5 PUSH2 0x1044 JUMP JUMPDEST PUSH2 0x102A JUMP JUMPDEST SWAP1 POP DUP3 DUP2 MSTORE PUSH1 0x20 DUP2 ADD DUP5 DUP5 DUP5 ADD GT ISZERO PUSH2 0x10B0 JUMPI PUSH2 0x10AF PUSH2 0xFC8 JUMP JUMPDEST JUMPDEST PUSH2 0x10BB DUP5 DUP3 DUP6 PUSH2 0x1074 JUMP JUMPDEST POP SWAP4 SWAP3 POP POP POP JUMP JUMPDEST PUSH0 DUP3 PUSH1 0x1F DUP4 ADD SLT PUSH2 0x10D7 JUMPI PUSH2 0x10D6 PUSH2 0xFC4 JUMP JUMPDEST JUMPDEST DUP2 CALLDATALOAD PUSH2 0x10E7 DUP5 DUP3 PUSH1 0x20 DUP7 ADD PUSH2 0x1082 JUMP JUMPDEST SWAP2 POP POP SWAP3 SWAP2 POP POP JUMP JUMPDEST PUSH0 PUSH1 0x20 DUP3 DUP5 SUB SLT ISZERO PUSH2 0x1105 JUMPI PUSH2 0x1104 PUSH2 0xDC9 JUMP JUMPDEST JUMPDEST PUSH0 DUP3 ADD CALLDATALOAD PUSH8 0xFFFFFFFFFFFFFFFF DUP2 GT ISZERO PUSH2 0x1122 JUMPI PUSH2 0x1121 PUSH2 0xDCD JUMP JUMPDEST JUMPDEST PUSH2 0x112E DUP5 DUP3 DUP6 ADD PUSH2 0x10C3 JUMP JUMPDEST SWAP2 POP POP SWAP3 SWAP2 POP POP JUMP JUMPDEST PUSH0 DUP2 MLOAD SWAP1 POP SWAP2 SWAP1 POP JUMP JUMPDEST PUSH0 DUP3 DUP3 MSTORE PUSH1 0x20 DUP3 ADD SWAP1 POP SWAP3 SWAP2 POP POP JUMP JUMPDEST PUSH0 DUP2 SWAP1 POP PUSH1 0x20 DUP3 ADD SWAP1 POP SWAP2 SWAP1 POP JUMP JUMPDEST PUSH0 PUSH2 0x116B DUP4 DUP4 PUSH2 0xC55 JUMP JUMPDEST PUSH1 0x20 DUP4 ADD SWAP1 POP SWAP3 SWAP2 POP POP JUMP JUMPDEST PUSH0 PUSH1 0x20 DUP3 ADD SWAP1 POP SWAP2 SWAP1 POP JUMP JUMPDEST PUSH0 PUSH2 0x118D DUP3 PUSH2 0x1137 JUMP JUMPDEST PUSH2 0x1197 DUP2 DUP6 PUSH2 0x1141 JUMP JUMPDEST SWAP4 POP PUSH2 0x11A2 DUP4 PUSH2 0x1151 JUMP JUMPDEST DUP1 PUSH0 JUMPDEST DUP4 DUP2 LT ISZERO PUSH2 0x11D2 JUMPI DUP2 MLOAD PUSH2 0x11B9 DUP9 DUP3 PUSH2 0x1160 JUMP JUMPDEST SWAP8 POP PUSH2 0x11C4 DUP4 PUSH2 0x1177 JUMP JUMPDEST SWAP3 POP POP PUSH1 0x1 DUP2 ADD SWAP1 POP PUSH2 0x11A5 JUMP JUMPDEST POP DUP6 SWAP4 POP POP POP POP SWAP3 SWAP2 POP POP JUMP JUMPDEST PUSH0 PUSH1 0x20 DUP3 ADD SWAP1 POP DUP2 DUP2 SUB PUSH0 DUP4 ADD MSTORE PUSH2 0x11F7 DUP2 DUP5 PUSH2 0x1183 JUMP JUMPDEST SWAP1 POP SWAP3 SWAP2 POP POP JUMP JUMPDEST PUSH0 PUSH2 0x1209 DUP3 PUSH2 0xC25 JUMP JUMPDEST SWAP1 POP SWAP2 SWAP1 POP JUMP JUMPDEST PUSH2 0x1219 DUP2 PUSH2 0x11FF JUMP JUMPDEST DUP3 MSTORE POP POP JUMP JUMPDEST PUSH0 PUSH1 0x20 DUP3 ADD SWAP1 POP PUSH2 0x1232 PUSH0 DUP4 ADD DUP5 PUSH2 0x1210 JUMP JUMPDEST SWAP3 SWAP2 POP POP JUMP JUMPDEST PUSH32 0x4E487B7100000000000000000000000000000000000000000000000000000000 PUSH0 MSTORE PUSH1 0x32 PUSH1 0x4 MSTORE PUSH1 0x24 PUSH0 REVERT JUMPDEST PUSH32 0x4E487B7100000000000000000000000000000000000000000000000000000000 PUSH0 MSTORE PUSH1 0x22 PUSH1 0x4 MSTORE PUSH1 0x24 PUSH0 REVERT JUMPDEST PUSH0 PUSH1 0x2 DUP3 DIV SWAP1 POP PUSH1 0x1 DUP3 AND DUP1 PUSH2 0x12A9 JUMPI PUSH1 0x7F DUP3 AND SWAP2 POP JUMPDEST PUSH1 0x20 DUP3 LT DUP2 SUB PUSH2 0x12BC JUMPI PUSH2 0x12BB PUSH2 0x1265 JUMP JUMPDEST JUMPDEST POP SWAP2 SWAP1 POP JUMP JUMPDEST PUSH32 0x4F6E6C7920746865206F776E65722063616E2063616C6C20746869732066756E PUSH0 DUP3 ADD MSTORE PUSH32 0x6374696F6E2E0000000000000000000000000000000000000000000000000000 PUSH1 0x20 DUP3 ADD MSTORE POP JUMP JUMPDEST PUSH0 PUSH2 0x131C PUSH1 0x26 DUP4 PUSH2 0xF34 JUMP JUMPDEST SWAP2 POP PUSH2 0x1327 DUP3 PUSH2 0x12C2 JUMP JUMPDEST PUSH1 0x40 DUP3 ADD SWAP1 POP SWAP2 SWAP1 POP JUMP JUMPDEST PUSH0 PUSH1 0x20 DUP3 ADD SWAP1 POP DUP2 DUP2 SUB PUSH0 DUP4 ADD MSTORE PUSH2 0x1349 DUP2 PUSH2 0x1310 JUMP JUMPDEST SWAP1 POP SWAP2 SWAP1 POP JUMP JUMPDEST PUSH32 0x4E6F626F64792068617320706172746963697061746564207965742C20492776 PUSH0 DUP3 ADD MSTORE PUSH32 0x6520676F74206E6F2D6F6E6520746F2073656E642065746865727320746F2100 PUSH1 0x20 DUP3 ADD MSTORE POP JUMP JUMPDEST PUSH0 PUSH2 0x13AA PUSH1 0x3F DUP4 PUSH2 0xF34 JUMP JUMPDEST SWAP2 POP PUSH2 0x13B5 DUP3 PUSH2 0x1350 JUMP JUMPDEST PUSH1 0x40 DUP3 ADD SWAP1 POP SWAP2 SWAP1 POP JUMP JUMPDEST PUSH0 PUSH1 0x20 DUP3 ADD SWAP1 POP DUP2 DUP2 SUB PUSH0 DUP4 ADD MSTORE PUSH2 0x13D7 DUP2 PUSH2 0x139E JUMP JUMPDEST SWAP1 POP SWAP2 SWAP1 POP JUMP JUMPDEST PUSH32 0x4E487B7100000000000000000000000000000000000000000000000000000000 PUSH0 MSTORE PUSH1 0x11 PUSH1 0x4 MSTORE PUSH1 0x24 PUSH0 REVERT JUMPDEST PUSH0 PUSH2 0x1415 DUP3 PUSH2 0xE31 JUMP JUMPDEST SWAP2 POP PUSH2 0x1420 DUP4 PUSH2 0xE31 JUMP JUMPDEST SWAP3 POP DUP3 DUP3 MUL PUSH2 0x142E DUP2 PUSH2 0xE31 JUMP JUMPDEST SWAP2 POP DUP3 DUP3 DIV DUP5 EQ DUP4 ISZERO OR PUSH2 0x1445 JUMPI PUSH2 0x1444 PUSH2 0x13DE JUMP JUMPDEST JUMPDEST POP SWAP3 SWAP2 POP POP JUMP JUMPDEST PUSH32 0x54686520636F6E747261637420646F65736E2774206861766520656E6F756768 PUSH0 DUP3 ADD MSTORE PUSH32 0x20657468657220746F2073656E6420352045746865727320746F206576657279 PUSH1 0x20 DUP3 ADD MSTORE PUSH32 0x207061727469636970616E742100000000000000000000000000000000000000 PUSH1 0x40 DUP3 ADD MSTORE POP JUMP JUMPDEST PUSH0 PUSH2 0x14CC PUSH1 0x4D DUP4 PUSH2 0xF34 JUMP JUMPDEST SWAP2 POP PUSH2 0x14D7 DUP3 PUSH2 0x144C JUMP JUMPDEST PUSH1 0x60 DUP3 ADD SWAP1 POP SWAP2 SWAP1 POP JUMP JUMPDEST PUSH0 PUSH1 0x20 DUP3 ADD SWAP1 POP DUP2 DUP2 SUB PUSH0 DUP4 ADD MSTORE PUSH2 0x14F9 DUP2 PUSH2 0x14C0 JUMP JUMPDEST SWAP1 POP SWAP2 SWAP1 POP JUMP JUMPDEST PUSH0 DUP2 SWAP1 POP SWAP3 SWAP2 POP POP JUMP JUMPDEST POP JUMP JUMPDEST PUSH0 PUSH2 0x1518 PUSH0 DUP4 PUSH2 0x1500 JUMP JUMPDEST SWAP2 POP PUSH2 0x1523 DUP3 PUSH2 0x150A JUMP JUMPDEST PUSH0 DUP3 ADD SWAP1 POP SWAP2 SWAP1 POP JUMP JUMPDEST PUSH0 PUSH2 0x1537 DUP3 PUSH2 0x150D JUMP JUMPDEST SWAP2 POP DUP2 SWAP1 POP SWAP2 SWAP1 POP JUMP JUMPDEST PUSH32 0x536F6D657468696E672077656E742077726F6E67207768656E2062617463682D PUSH0 DUP3 ADD MSTORE PUSH32 0x7472616E73666572696E67210000000000000000000000000000000000000000 PUSH1 0x20 DUP3 ADD MSTORE POP JUMP JUMPDEST PUSH0 PUSH2 0x159B PUSH1 0x2C DUP4 PUSH2 0xF34 JUMP JUMPDEST SWAP2 POP PUSH2 0x15A6 DUP3 PUSH2 0x1541 JUMP JUMPDEST PUSH1 0x40 DUP3 ADD SWAP1 POP SWAP2 SWAP1 POP JUMP JUMPDEST PUSH0 PUSH1 0x20 DUP3 ADD SWAP1 POP DUP2 DUP2 SUB PUSH0 DUP4 ADD MSTORE PUSH2 0x15C8 DUP2 PUSH2 0x158F JUMP JUMPDEST SWAP1 POP SWAP2 SWAP1 POP JUMP JUMPDEST PUSH32 0x4661696C656420746F2073656E64204574686572203A2D280000000000000000 PUSH0 DUP3 ADD MSTORE POP JUMP JUMPDEST PUSH0 PUSH2 0x1603 PUSH1 0x18 DUP4 PUSH2 0xF34 JUMP JUMPDEST SWAP2 POP PUSH2 0x160E DUP3 PUSH2 0x15CF JUMP JUMPDEST PUSH1 0x20 DUP3 ADD SWAP1 POP SWAP2 SWAP1 POP JUMP JUMPDEST PUSH0 PUSH1 0x20 DUP3 ADD SWAP1 POP DUP2 DUP2 SUB PUSH0 DUP4 ADD MSTORE PUSH2 0x1630 DUP2 PUSH2 0x15F7 JUMP JUMPDEST SWAP1 POP SWAP2 SWAP1 POP JUMP JUMPDEST PUSH32 0x596F7527766520616C72656164792073746F7265642061206D65737361676520 PUSH0 DUP3 ADD MSTORE PUSH32 0x696E2074686520706173742C20736F7272792100000000000000000000000000 PUSH1 0x20 DUP3 ADD MSTORE POP JUMP JUMPDEST PUSH0 PUSH2 0x1691 PUSH1 0x33 DUP4 PUSH2 0xF34 JUMP JUMPDEST SWAP2 POP PUSH2 0x169C DUP3 PUSH2 0x1637 JUMP JUMPDEST PUSH1 0x40 DUP3 ADD SWAP1 POP SWAP2 SWAP1 POP JUMP JUMPDEST PUSH0 PUSH1 0x20 DUP3 ADD SWAP1 POP DUP2 DUP2 SUB PUSH0 DUP4 ADD MSTORE PUSH2 0x16BE DUP2 PUSH2 0x1685 JUMP JUMPDEST SWAP1 POP SWAP2 SWAP1 POP JUMP JUMPDEST PUSH0 DUP2 SWAP1 POP DUP2 PUSH0 MSTORE PUSH1 0x20 PUSH0 KECCAK256 SWAP1 POP SWAP2 SWAP1 POP JUMP JUMPDEST PUSH0 PUSH1 0x20 PUSH1 0x1F DUP4 ADD DIV SWAP1 POP SWAP2 SWAP1 POP JUMP JUMPDEST PUSH0 DUP3 DUP3 SHL SWAP1 POP SWAP3 SWAP2 POP POP JUMP JUMPDEST PUSH0 PUSH1 0x8 DUP4 MUL PUSH2 0x1721 PUSH32 0xFFFFFFFFFFFFFFFFFFFFFFFFFFFFFFFFFFFFFFFFFFFFFFFFFFFFFFFFFFFFFFFF DUP3 PUSH2 0x16E6 JUMP JUMPDEST PUSH2 0x172B DUP7 DUP4 PUSH2 0x16E6 JUMP JUMPDEST SWAP6 POP DUP1 NOT DUP5 AND SWAP4 POP DUP1 DUP7 AND DUP5 OR SWAP3 POP POP POP SWAP4 SWAP3 POP POP POP JUMP JUMPDEST PUSH0 DUP2 SWAP1 POP SWAP2 SWAP1 POP JUMP JUMPDEST PUSH0 PUSH2 0x1766 PUSH2 0x1761 PUSH2 0x175C DUP5 PUSH2 0xE31 JUMP JUMPDEST PUSH2 0x1743 JUMP JUMPDEST PUSH2 0xE31 JUMP JUMPDEST SWAP1 POP SWAP2 SWAP1 POP JUMP JUMPDEST PUSH0 DUP2 SWAP1 POP SWAP2 SWAP1 POP JUMP JUMPDEST PUSH2 0x177F DUP4 PUSH2 0x174C JUMP JUMPDEST PUSH2 0x1793 PUSH2 0x178B DUP3 PUSH2 0x176D JUMP JUMPDEST DUP5 DUP5 SLOAD PUSH2 0x16F2 JUMP JUMPDEST DUP3 SSTORE POP POP POP POP JUMP JUMPDEST PUSH0 SWAP1 JUMP JUMPDEST PUSH2 0x17A7 PUSH2 0x179B JUMP JUMPDEST PUSH2 0x17B2 DUP2 DUP5 DUP5 PUSH2 0x1776 JUMP JUMPDEST POP POP POP JUMP JUMPDEST JUMPDEST DUP2 DUP2 LT ISZERO PUSH2 0x17D5 JUMPI PUSH2 0x17CA PUSH0 DUP3 PUSH2 0x179F JUMP JUMPDEST PUSH1 0x1 DUP2 ADD SWAP1 POP PUSH2 0x17B8 JUMP JUMPDEST POP POP JUMP JUMPDEST PUSH1 0x1F DUP3 GT ISZERO PUSH2 0x181A JUMPI PUSH2 0x17EB DUP2 PUSH2 0x16C5 JUMP JUMPDEST PUSH2 0x17F4 DUP5 PUSH2 0x16D7 JUMP JUMPDEST DUP2 ADD PUSH1 0x20 DUP6 LT ISZERO PUSH2 0x1803 JUMPI DUP2 SWAP1 POP JUMPDEST PUSH2 0x1817 PUSH2 0x180F DUP6 PUSH2 0x16D7 JUMP JUMPDEST DUP4 ADD DUP3 PUSH2 0x17B7 JUMP JUMPDEST POP POP JUMPDEST POP POP POP JUMP JUMPDEST PUSH0 DUP3 DUP3 SHR SWAP1 POP SWAP3 SWAP2 POP POP JUMP JUMPDEST PUSH0 PUSH2 0x183A PUSH0 NOT DUP5 PUSH1 0x8 MUL PUSH2 0x181F JUMP JUMPDEST NOT DUP1 DUP4 AND SWAP2 POP POP SWAP3 SWAP2 POP POP JUMP JUMPDEST PUSH0 PUSH2 0x1852 DUP4 DUP4 PUSH2 0x182B JUMP JUMPDEST SWAP2 POP DUP3 PUSH1 0x2 MUL DUP3 OR SWAP1 POP SWAP3 SWAP2 POP POP JUMP JUMPDEST PUSH2 0x186B DUP3 PUSH2 0xC64 JUMP JUMPDEST PUSH8 0xFFFFFFFFFFFFFFFF DUP2 GT ISZERO PUSH2 0x1884 JUMPI PUSH2 0x1883 PUSH2 0xFCC JUMP JUMPDEST JUMPDEST PUSH2 0x188E DUP3 SLOAD PUSH2 0x1292 JUMP JUMPDEST PUSH2 0x1899 DUP3 DUP3 DUP6 PUSH2 0x17D9 JUMP JUMPDEST PUSH0 PUSH1 0x20 SWAP1 POP PUSH1 0x1F DUP4 GT PUSH1 0x1 DUP2 EQ PUSH2 0x18CA JUMPI PUSH0 DUP5 ISZERO PUSH2 0x18B8 JUMPI DUP3 DUP8 ADD MLOAD SWAP1 POP JUMPDEST PUSH2 0x18C2 DUP6 DUP3 PUSH2 0x1847 JUMP JUMPDEST DUP7 SSTORE POP PUSH2 0x1929 JUMP JUMPDEST PUSH1 0x1F NOT DUP5 AND PUSH2 0x18D8 DUP7 PUSH2 0x16C5 JUMP JUMPDEST PUSH0 JUMPDEST DUP3 DUP2 LT ISZERO PUSH2 0x18FF JUMPI DUP5 DUP10 ADD MLOAD DUP3 SSTORE PUSH1 0x1 DUP3 ADD SWAP2 POP PUSH1 0x20 DUP6 ADD SWAP5 POP PUSH1 0x20 DUP2 ADD SWAP1 POP PUSH2 0x18DA JUMP JUMPDEST DUP7 DUP4 LT ISZERO PUSH2 0x191C JUMPI DUP5 DUP10 ADD MLOAD PUSH2 0x1918 PUSH1 0x1F DUP10 AND DUP3 PUSH2 0x182B JUMP JUMPDEST DUP4 SSTORE POP JUMPDEST PUSH1 0x1 PUSH1 0x2 DUP9 MUL ADD DUP9 SSTORE POP POP POP JUMPDEST POP POP POP POP POP POP JUMP INVALID LOG2 PUSH5 0x6970667358 0x22 SLT KECCAK256 LOG2 0xCF SWAP4 0xC5 LOG3 0xB5 0xB5 0xB2 GASLIMIT SWAP6 0xE8 RETURNDATASIZE PUSH14 0x16833AE67628A4C600391B0C6007 MULMOD BLOCKHASH 0xA9 SWAP12 PUSH23 0x64736F6C634300081A0033000000000000000000000000 "
		},
		"gasEstimates": {
			"creation": {
				"codeDepositCost": "1300600",
				"executionCost": "49936",
				"totalCost": "1350536"
			},
			"external": {
				"acceptingEntries()": "2561",
				"admin()": "2618",
				"depositSomeEthers()": "230",
				"distributeTestEtherToMembers()": "infinite",
				"emergencySiphon()": "infinite",
				"getFullAddressListAndMessages()": "infinite",
				"getOnlyAddressList()": "infinite",
				"getOnlyAddressListLength()": "2507",
				"setAcceptingNewEntries(bool)": "26916",
				"storeMessage(string)": "infinite",
				"userAddresses(uint256)": "4989",
				"userMessages(address)": "infinite"
			}
		},
		"methodIdentifiers": {
			"acceptingEntries()": "b4b84989",
			"admin()": "f851a440",
			"depositSomeEthers()": "80e77dc9",
			"distributeTestEtherToMembers()": "8e841330",
			"emergencySiphon()": "a8a9b036",
			"getFullAddressListAndMessages()": "323ae37b",
			"getOnlyAddressList()": "f44eabaf",
			"getOnlyAddressListLength()": "62042b8f",
			"setAcceptingNewEntries(bool)": "42313f30",
			"storeMessage(string)": "d4e36ba7",
			"userAddresses(uint256)": "502c9bd5",
			"userMessages(address)": "6cd947ee"
		}
	},
	"abi": [
		{
			"inputs": [],
			"stateMutability": "nonpayable",
			"type": "constructor"
		},
		{
			"inputs": [],
			"name": "acceptingEntries",
			"outputs": [
				{
					"internalType": "bool",
					"name": "",
					"type": "bool"
				}
			],
			"stateMutability": "view",
			"type": "function"
		},
		{
			"inputs": [],
			"name": "admin",
			"outputs": [
				{
					"internalType": "address payable",
					"name": "",
					"type": "address"
				}
			],
			"stateMutability": "view",
			"type": "function"
		},
		{
			"inputs": [],
			"name": "depositSomeEthers",
			"outputs": [],
			"stateMutability": "payable",
			"type": "function"
		},
		{
			"inputs": [],
			"name": "distributeTestEtherToMembers",
			"outputs": [],
			"stateMutability": "nonpayable",
			"type": "function"
		},
		{
			"inputs": [],
			"name": "emergencySiphon",
			"outputs": [],
			"stateMutability": "nonpayable",
			"type": "function"
		},
		{
			"inputs": [],
			"name": "getFullAddressListAndMessages",
			"outputs": [
				{
					"components": [
						{
							"internalType": "address",
							"name": "userAddress",
							"type": "address"
						},
						{
							"internalType": "string",
							"name": "userMessage",
							"type": "string"
						}
					],
					"internalType": "struct HouseOfEtherHarvester.User[]",
					"name": "addressListWithMessages",
					"type": "tuple[]"
				}
			],
			"stateMutability": "view",
			"type": "function"
		},
		{
			"inputs": [],
			"name": "getOnlyAddressList",
			"outputs": [
				{
					"internalType": "address[]",
					"name": "addressList",
					"type": "address[]"
				}
			],
			"stateMutability": "view",
			"type": "function"
		},
		{
			"inputs": [],
			"name": "getOnlyAddressListLength",
			"outputs": [
				{
					"internalType": "uint256",
					"name": "length",
					"type": "uint256"
				}
			],
			"stateMutability": "view",
			"type": "function"
		},
		{
			"inputs": [
				{
					"internalType": "bool",
					"name": "flag",
					"type": "bool"
				}
			],
			"name": "setAcceptingNewEntries",
			"outputs": [],
			"stateMutability": "nonpayable",
			"type": "function"
		},
		{
			"inputs": [
				{
					"internalType": "string",
					"name": "message",
					"type": "string"
				}
			],
			"name": "storeMessage",
			"outputs": [],
			"stateMutability": "nonpayable",
			"type": "function"
		},
		{
			"inputs": [
				{
					"internalType": "uint256",
					"name": "",
					"type": "uint256"
				}
			],
			"name": "userAddresses",
			"outputs": [
				{
					"internalType": "address",
					"name": "",
					"type": "address"
				}
			],
			"stateMutability": "view",
			"type": "function"
		},
		{
			"inputs": [
				{
					"internalType": "address",
					"name": "user",
					"type": "address"
				}
			],
			"name": "userMessages",
			"outputs": [
				{
					"internalType": "string",
					"name": "user_message",
					"type": "string"
				}
			],
			"stateMutability": "view",
			"type": "function"
		}
	]
}